{
  "contractName": "Managed",
  "abi": [
    {
      "constant": true,
      "inputs": [],
      "name": "newManager",
      "outputs": [
        {
          "name": "",
          "type": "address"
        }
      ],
      "payable": false,
      "stateMutability": "view",
      "type": "function"
    },
    {
      "constant": true,
      "inputs": [],
      "name": "manager",
      "outputs": [
        {
          "name": "",
          "type": "address"
        }
      ],
      "payable": false,
      "stateMutability": "view",
      "type": "function"
    },
    {
      "constant": false,
      "inputs": [],
      "name": "acceptManagement",
      "outputs": [],
      "payable": false,
      "stateMutability": "nonpayable",
      "type": "function"
    },
    {
      "constant": false,
      "inputs": [
        {
          "name": "_newManager",
          "type": "address"
        }
      ],
      "name": "transferManagement",
      "outputs": [],
      "payable": false,
      "stateMutability": "nonpayable",
      "type": "function"
    },
    {
      "inputs": [],
      "payable": false,
      "stateMutability": "nonpayable",
      "type": "constructor"
    },
    {
      "anonymous": false,
      "inputs": [
        {
          "indexed": false,
          "name": "_prevManager",
          "type": "address"
        },
        {
          "indexed": false,
          "name": "_newManager",
          "type": "address"
        }
      ],
      "name": "ManagerUpdate",
      "type": "event"
    }
  ],
  "bytecode": "0x6060604052341561000f57600080fd5b60008054600160a060020a033316600160a060020a031990911617905561022f8061003b6000396000f3006060604052600436106100615763ffffffff7c0100000000000000000000000000000000000000000000000000000000600035041663429060298114610066578063481c6a7514610095578063c8c2fe6c146100a8578063e4edf852146100bd575b600080fd5b341561007157600080fd5b6100796100dc565b604051600160a060020a03909116815260200160405180910390f35b34156100a057600080fd5b6100796100eb565b34156100b357600080fd5b6100bb6100fa565b005b34156100c857600080fd5b6100bb600160a060020a03600435166101a1565b600154600160a060020a031681565b600054600160a060020a031681565b60015433600160a060020a0390811691161461011557600080fd5b6000546001547fbe4cc281795971a471c980e842627a7f1ea3892ddfce8c5b6357cd2611c1973291600160a060020a039081169116604051600160a060020a039283168152911660208201526040908101905180910390a1600180546000805473ffffffffffffffffffffffffffffffffffffffff19908116600160a060020a03841617909155169055565b60005433600160a060020a039081169116146101b957fe5b600054600160a060020a03828116911614156101d457600080fd5b6001805473ffffffffffffffffffffffffffffffffffffffff1916600160a060020a03929092169190911790555600a165627a7a72305820face9fa6d2a84f2064db7b0942beac62fa403e49909ac1f017b2ecd8a918a6320029",
  "source": "pragma solidity ^0.4.15;\n\n/*\n    Provides support and utilities for contract management\n*/\ncontract Managed {\n    address public manager;\n    address public newManager;\n\n    event ManagerUpdate(address _prevManager, address _newManager);\n\n    /**\n        @dev constructor\n    */\n    function Managed() {\n        manager = msg.sender;\n    }\n\n    // allows execution by the manager only\n    modifier managerOnly {\n        assert(msg.sender == manager);\n        _;\n    }\n\n    /**\n        @dev allows transferring the contract management\n        the new manager still needs to accept the transfer\n        can only be called by the contract manager\n\n        @param _newManager    new contract manager\n    */\n    function transferManagement(address _newManager) public managerOnly {\n        require(_newManager != manager);\n        newManager = _newManager;\n    }\n\n    /**\n        @dev used by a new manager to accept a management transfer\n    */\n    function acceptManagement() public {\n        require(msg.sender == newManager);\n        ManagerUpdate(manager, newManager);\n        manager = newManager;\n        newManager = 0x0;\n    }\n}\n",
  "sourcePath": "/home/gabriel/audits/rootcore/contracts/Managed.sol",
  "compiler": {
    "name": "solc",
    "version": "0.4.18+commit.9cf6e910.Emscripten.clang"
  },
  "schemaVersion": "1.0.1",
  "updatedAt": "2018-01-25T20:01:04.559Z"
}