{
  "contractName": "Managed",
  "abi": [
    {
      "constant": true,
      "inputs": [],
      "name": "newManager",
      "outputs": [
        {
          "name": "",
          "type": "address"
        }
      ],
      "payable": false,
      "type": "function",
      "stateMutability": "view"
    },
    {
      "constant": true,
      "inputs": [],
      "name": "manager",
      "outputs": [
        {
          "name": "",
          "type": "address"
        }
      ],
      "payable": false,
      "type": "function",
      "stateMutability": "view"
    },
    {
      "constant": false,
      "inputs": [],
      "name": "acceptManagement",
      "outputs": [],
      "payable": false,
      "type": "function",
      "stateMutability": "nonpayable"
    },
    {
      "constant": false,
      "inputs": [
        {
          "name": "_newManager",
          "type": "address"
        }
      ],
      "name": "transferManagement",
      "outputs": [],
      "payable": false,
      "type": "function",
      "stateMutability": "nonpayable"
    },
    {
      "inputs": [],
      "payable": false,
      "type": "constructor",
      "stateMutability": "nonpayable"
    },
    {
      "anonymous": false,
      "inputs": [
        {
          "indexed": false,
          "name": "_prevManager",
          "type": "address"
        },
        {
          "indexed": false,
          "name": "_newManager",
          "type": "address"
        }
      ],
      "name": "ManagerUpdate",
      "type": "event"
    }
  ],
  "bytecode": "0x6060604052341561000f57600080fd5b60008054600160a060020a033316600160a060020a03199091161790556102268061003b6000396000f300606060405263ffffffff7c010000000000000000000000000000000000000000000000000000000060003504166342906029811461005d578063481c6a751461008c578063c8c2fe6c1461009f578063e4edf852146100b457600080fd5b341561006857600080fd5b6100706100d3565b604051600160a060020a03909116815260200160405180910390f35b341561009757600080fd5b6100706100e2565b34156100aa57600080fd5b6100b26100f1565b005b34156100bf57600080fd5b6100b2600160a060020a0360043516610198565b600154600160a060020a031681565b600054600160a060020a031681565b60015433600160a060020a0390811691161461010c57600080fd5b6000546001547fbe4cc281795971a471c980e842627a7f1ea3892ddfce8c5b6357cd2611c1973291600160a060020a039081169116604051600160a060020a039283168152911660208201526040908101905180910390a1600180546000805473ffffffffffffffffffffffffffffffffffffffff19908116600160a060020a03841617909155169055565b60005433600160a060020a039081169116146101b057fe5b600054600160a060020a03828116911614156101cb57600080fd5b6001805473ffffffffffffffffffffffffffffffffffffffff1916600160a060020a03929092169190911790555600a165627a7a723058203b6f4a271a19c3231dbd38869ce9462fafe216b740aae1a5f6d56c876f33f4530029",
  "source": "pragma solidity ^0.4.15;\r\n\r\n/*\r\n    Provides support and utilities for contract management\r\n*/\r\ncontract Managed {\r\n    address public manager;\r\n    address public newManager;\r\n\r\n    event ManagerUpdate(address _prevManager, address _newManager);\r\n\r\n    /**\r\n        @dev constructor\r\n    */\r\n    function Managed() {\r\n        manager = msg.sender;\r\n    }\r\n\r\n    // allows execution by the manager only\r\n    modifier managerOnly {\r\n        assert(msg.sender == manager);\r\n        _;\r\n    }\r\n\r\n    /**\r\n        @dev allows transferring the contract management\r\n        the new manager still needs to accept the transfer\r\n        can only be called by the contract manager\r\n\r\n        @param _newManager    new contract manager\r\n    */\r\n    function transferManagement(address _newManager) public managerOnly {\r\n        require(_newManager != manager);\r\n        newManager = _newManager;\r\n    }\r\n\r\n    /**\r\n        @dev used by a new manager to accept a management transfer\r\n    */\r\n    function acceptManagement() public {\r\n        require(msg.sender == newManager);\r\n        ManagerUpdate(manager, newManager);\r\n        manager = newManager;\r\n        newManager = 0x0;\r\n    }\r\n}\r\n",
  "sourcePath": "D:\\Blockchain-Solidity\\rootcore\\contracts\\Managed.sol",
  "schemaVersion": "1.0.0",
  "updatedAt": "2018-01-25T22:07:30.938Z"
}