{
  "contractName": "Pausable",
  "abi": [
    {
      "constant": false,
      "inputs": [],
      "name": "unpause",
      "outputs": [
        {
          "name": "",
          "type": "bool"
        }
      ],
      "payable": false,
      "type": "function",
      "stateMutability": "nonpayable"
    },
    {
      "constant": true,
      "inputs": [],
      "name": "newManager",
      "outputs": [
        {
          "name": "",
          "type": "address"
        }
      ],
      "payable": false,
      "type": "function",
      "stateMutability": "view"
    },
    {
      "constant": true,
      "inputs": [],
      "name": "manager",
      "outputs": [
        {
          "name": "",
          "type": "address"
        }
      ],
      "payable": false,
      "type": "function",
      "stateMutability": "view"
    },
    {
      "constant": true,
      "inputs": [],
      "name": "paused",
      "outputs": [
        {
          "name": "",
          "type": "bool"
        }
      ],
      "payable": false,
      "type": "function",
      "stateMutability": "view"
    },
    {
      "constant": false,
      "inputs": [],
      "name": "pause",
      "outputs": [
        {
          "name": "",
          "type": "bool"
        }
      ],
      "payable": false,
      "type": "function",
      "stateMutability": "nonpayable"
    },
    {
      "constant": false,
      "inputs": [],
      "name": "acceptManagement",
      "outputs": [],
      "payable": false,
      "type": "function",
      "stateMutability": "nonpayable"
    },
    {
      "constant": false,
      "inputs": [
        {
          "name": "_newManager",
          "type": "address"
        }
      ],
      "name": "transferManagement",
      "outputs": [],
      "payable": false,
      "type": "function",
      "stateMutability": "nonpayable"
    },
    {
      "anonymous": false,
      "inputs": [],
      "name": "Pause",
      "type": "event"
    },
    {
      "anonymous": false,
      "inputs": [],
      "name": "Unpause",
      "type": "event"
    },
    {
      "anonymous": false,
      "inputs": [
        {
          "indexed": false,
          "name": "_prevManager",
          "type": "address"
        },
        {
          "indexed": false,
          "name": "_newManager",
          "type": "address"
        }
      ],
      "name": "ManagerUpdate",
      "type": "event"
    }
  ],
  "bytecode": "0x60606040526001805460a060020a60ff021916905560008054600160a060020a033316600160a060020a03199091161790556103b2806100406000396000f300606060405236156100805763ffffffff7c01000000000000000000000000000000000000000000000000000000006000350416633f4ba83a811461008557806342906029146100ac578063481c6a75146100db5780635c975abb146100ee5780638456cb5914610101578063c8c2fe6c14610114578063e4edf85214610129575b600080fd5b341561009057600080fd5b610098610148565b604051901515815260200160405180910390f35b34156100b757600080fd5b6100bf6101c9565b604051600160a060020a03909116815260200160405180910390f35b34156100e657600080fd5b6100bf6101d8565b34156100f957600080fd5b6100986101e7565b341561010c57600080fd5b6100986101f7565b341561011f57600080fd5b61012761027d565b005b341561013457600080fd5b610127600160a060020a0360043516610324565b6000805433600160a060020a0390811691161461016157fe5b60015460a060020a900460ff16151561017957600080fd5b6001805474ff0000000000000000000000000000000000000000191690557f7805862f689e2f13df9f062ff482ad3ad112aca9e0847911ed832e158c525b3360405160405180910390a150600190565b600154600160a060020a031681565b600054600160a060020a031681565b60015460a060020a900460ff1681565b6000805433600160a060020a0390811691161461021057fe5b60015460a060020a900460ff161561022757600080fd5b6001805474ff0000000000000000000000000000000000000000191660a060020a1790557f6985a02210a168e66602d3235cb6db0e70f92b3ba4d376a33c0f3d9434bff62560405160405180910390a150600190565b60015433600160a060020a0390811691161461029857600080fd5b6000546001547fbe4cc281795971a471c980e842627a7f1ea3892ddfce8c5b6357cd2611c1973291600160a060020a039081169116604051600160a060020a039283168152911660208201526040908101905180910390a1600180546000805473ffffffffffffffffffffffffffffffffffffffff19908116600160a060020a03841617909155169055565b60005433600160a060020a0390811691161461033c57fe5b600054600160a060020a038281169116141561035757600080fd5b6001805473ffffffffffffffffffffffffffffffffffffffff1916600160a060020a03929092169190911790555600a165627a7a723058204443a06287e076537535cf6feb406faa5665d5b4962e99a60bb0bcad47abe8510029",
  "source": "pragma solidity ^0.4.15;\r\nimport './Managed.sol';\r\n\r\n/**\r\n * @title Pausable\r\n * @dev Base contract which allows children to implement an emergency stop mechanism.\r\n */\r\ncontract Pausable is Managed {\r\n  event Pause();\r\n  event Unpause();\r\n\r\n  bool public paused = false;\r\n\r\n\r\n  /**\r\n   * @dev modifier to allow actions only when the contract IS paused\r\n   */\r\n  modifier whenNotPaused() {\r\n    require(!paused);\r\n    _;\r\n  }\r\n\r\n  /**\r\n   * @dev modifier to allow actions only when the contract IS NOT paused\r\n   */\r\n  modifier whenPaused {\r\n    require(paused);\r\n    _;\r\n  }\r\n\r\n  /**\r\n   * @dev called by the Manager to pause, triggers stopped state\r\n   */\r\n  function pause() managerOnly whenNotPaused returns (bool) {\r\n    paused = true;\r\n    Pause();\r\n    return true;\r\n  }\r\n\r\n  /**\r\n   * @dev called by the Manager to unpause, returns to normal state\r\n   */\r\n  function unpause() managerOnly whenPaused returns (bool) {\r\n    paused = false;\r\n    Unpause();\r\n    return true;\r\n  }\r\n}\r\n",
  "sourcePath": "D:\\Blockchain-Solidity\\rootcore\\contracts\\Pausable.sol",
  "schemaVersion": "1.0.0",
  "updatedAt": "2018-01-25T22:07:30.944Z"
}