{
  "contractName": "Pausable",
  "abi": [
    {
      "constant": false,
      "inputs": [],
      "name": "unpause",
      "outputs": [
        {
          "name": "",
          "type": "bool"
        }
      ],
      "payable": false,
      "stateMutability": "nonpayable",
      "type": "function"
    },
    {
      "constant": true,
      "inputs": [],
      "name": "newManager",
      "outputs": [
        {
          "name": "",
          "type": "address"
        }
      ],
      "payable": false,
      "stateMutability": "view",
      "type": "function"
    },
    {
      "constant": true,
      "inputs": [],
      "name": "manager",
      "outputs": [
        {
          "name": "",
          "type": "address"
        }
      ],
      "payable": false,
      "stateMutability": "view",
      "type": "function"
    },
    {
      "constant": true,
      "inputs": [],
      "name": "paused",
      "outputs": [
        {
          "name": "",
          "type": "bool"
        }
      ],
      "payable": false,
      "stateMutability": "view",
      "type": "function"
    },
    {
      "constant": false,
      "inputs": [],
      "name": "pause",
      "outputs": [
        {
          "name": "",
          "type": "bool"
        }
      ],
      "payable": false,
      "stateMutability": "nonpayable",
      "type": "function"
    },
    {
      "constant": false,
      "inputs": [],
      "name": "acceptManagement",
      "outputs": [],
      "payable": false,
      "stateMutability": "nonpayable",
      "type": "function"
    },
    {
      "constant": false,
      "inputs": [
        {
          "name": "_newManager",
          "type": "address"
        }
      ],
      "name": "transferManagement",
      "outputs": [],
      "payable": false,
      "stateMutability": "nonpayable",
      "type": "function"
    },
    {
      "anonymous": false,
      "inputs": [],
      "name": "Pause",
      "type": "event"
    },
    {
      "anonymous": false,
      "inputs": [],
      "name": "Unpause",
      "type": "event"
    },
    {
      "anonymous": false,
      "inputs": [
        {
          "indexed": false,
          "name": "_prevManager",
          "type": "address"
        },
        {
          "indexed": false,
          "name": "_newManager",
          "type": "address"
        }
      ],
      "name": "ManagerUpdate",
      "type": "event"
    }
  ],
  "bytecode": "0x60606040526001805460a060020a60ff021916905560008054600160a060020a033316600160a060020a03199091161790556103b4806100406000396000f3006060604052600436106100825763ffffffff7c01000000000000000000000000000000000000000000000000000000006000350416633f4ba83a811461008757806342906029146100ae578063481c6a75146100dd5780635c975abb146100f05780638456cb5914610103578063c8c2fe6c14610116578063e4edf8521461012b575b600080fd5b341561009257600080fd5b61009a61014a565b604051901515815260200160405180910390f35b34156100b957600080fd5b6100c16101cb565b604051600160a060020a03909116815260200160405180910390f35b34156100e857600080fd5b6100c16101da565b34156100fb57600080fd5b61009a6101e9565b341561010e57600080fd5b61009a6101f9565b341561012157600080fd5b61012961027f565b005b341561013657600080fd5b610129600160a060020a0360043516610326565b6000805433600160a060020a0390811691161461016357fe5b60015460a060020a900460ff16151561017b57600080fd5b6001805474ff0000000000000000000000000000000000000000191690557f7805862f689e2f13df9f062ff482ad3ad112aca9e0847911ed832e158c525b3360405160405180910390a150600190565b600154600160a060020a031681565b600054600160a060020a031681565b60015460a060020a900460ff1681565b6000805433600160a060020a0390811691161461021257fe5b60015460a060020a900460ff161561022957600080fd5b6001805474ff0000000000000000000000000000000000000000191660a060020a1790557f6985a02210a168e66602d3235cb6db0e70f92b3ba4d376a33c0f3d9434bff62560405160405180910390a150600190565b60015433600160a060020a0390811691161461029a57600080fd5b6000546001547fbe4cc281795971a471c980e842627a7f1ea3892ddfce8c5b6357cd2611c1973291600160a060020a039081169116604051600160a060020a039283168152911660208201526040908101905180910390a1600180546000805473ffffffffffffffffffffffffffffffffffffffff19908116600160a060020a03841617909155169055565b60005433600160a060020a0390811691161461033e57fe5b600054600160a060020a038281169116141561035957600080fd5b6001805473ffffffffffffffffffffffffffffffffffffffff1916600160a060020a03929092169190911790555600a165627a7a723058208a20d0129964009c1119a530cd3428e4a52da0277767751ce2681535e6d848280029",
  "source": "pragma solidity ^0.4.15;\nimport './Managed.sol';\n\n/**\n * @title Pausable\n * @dev Base contract which allows children to implement an emergency stop mechanism.\n */\ncontract Pausable is Managed {\n  event Pause();\n  event Unpause();\n\n  bool public paused = false;\n\n\n  /**\n   * @dev modifier to allow actions only when the contract IS paused\n   */\n  modifier whenNotPaused() {\n    require(!paused);\n    _;\n  }\n\n  /**\n   * @dev modifier to allow actions only when the contract IS NOT paused\n   */\n  modifier whenPaused {\n    require(paused);\n    _;\n  }\n\n  /**\n   * @dev called by the Manager to pause, triggers stopped state\n   */\n  function pause() managerOnly whenNotPaused returns (bool) {\n    paused = true;\n    Pause();\n    return true;\n  }\n\n  /**\n   * @dev called by the Manager to unpause, returns to normal state\n   */\n  function unpause() managerOnly whenPaused returns (bool) {\n    paused = false;\n    Unpause();\n    return true;\n  }\n}\n",
  "sourcePath": "/home/gabriel/audits/rootcore/contracts/Pausable.sol",
  "compiler": {
    "name": "solc",
    "version": "0.4.18+commit.9cf6e910.Emscripten.clang"
  },
  "schemaVersion": "1.0.1",
  "updatedAt": "2018-01-25T20:01:04.559Z"
}