{
  "contractName": "SmartTokenController",
  "abi": [
    {
      "constant": false,
      "inputs": [
        {
          "name": "_newOwner",
          "type": "address"
        }
      ],
      "name": "transferTokenOwnership",
      "outputs": [],
      "payable": false,
      "type": "function"
    },
    {
      "constant": false,
      "inputs": [],
      "name": "acceptTokenOwnership",
      "outputs": [],
      "payable": false,
      "type": "function"
    },
    {
      "constant": false,
      "inputs": [
        {
          "name": "_token",
          "type": "address"
        },
        {
          "name": "_to",
          "type": "address"
        },
        {
          "name": "_amount",
          "type": "uint256"
        }
      ],
      "name": "withdrawFromToken",
      "outputs": [],
      "payable": false,
      "type": "function"
    },
    {
      "constant": false,
      "inputs": [
        {
          "name": "_token",
          "type": "address"
        },
        {
          "name": "_to",
          "type": "address"
        },
        {
          "name": "_amount",
          "type": "uint256"
        }
      ],
      "name": "withdrawTokens",
      "outputs": [],
      "payable": false,
      "type": "function"
    },
    {
      "constant": false,
      "inputs": [],
      "name": "acceptOwnership",
      "outputs": [],
      "payable": false,
      "type": "function"
    },
    {
      "constant": false,
      "inputs": [
        {
          "name": "_disable",
          "type": "bool"
        }
      ],
      "name": "disableTokenTransfers",
      "outputs": [],
      "payable": false,
      "type": "function"
    },
    {
      "constant": true,
      "inputs": [],
      "name": "owner",
      "outputs": [
        {
          "name": "",
          "type": "address"
        }
      ],
      "payable": false,
      "type": "function"
    },
    {
      "constant": true,
      "inputs": [],
      "name": "newOwner",
      "outputs": [
        {
          "name": "",
          "type": "address"
        }
      ],
      "payable": false,
      "type": "function"
    },
    {
      "constant": false,
      "inputs": [
        {
          "name": "_newOwner",
          "type": "address"
        }
      ],
      "name": "transferOwnership",
      "outputs": [],
      "payable": false,
      "type": "function"
    },
    {
      "constant": true,
      "inputs": [],
      "name": "token",
      "outputs": [
        {
          "name": "",
          "type": "address"
        }
      ],
      "payable": false,
      "type": "function"
    },
    {
      "inputs": [
        {
          "name": "_token",
          "type": "address"
        }
      ],
      "payable": false,
      "type": "constructor"
    },
    {
      "anonymous": false,
      "inputs": [
        {
          "indexed": false,
          "name": "_prevOwner",
          "type": "address"
        },
        {
          "indexed": false,
          "name": "_newOwner",
          "type": "address"
        }
      ],
      "name": "OwnerUpdate",
      "type": "event"
    }
  ],
  "bytecode": "0x6060604052341561000f57600080fd5b6040516020806106d3833981016040528080519150505b5b5b5b60008054600160a060020a03191633600160a060020a03161790555b5b5b80600160a060020a038116151561005d57600080fd5b60028054600160a060020a031916600160a060020a0384161790555b5b50505b6106478061008c6000396000f300606060405236156100885763ffffffff60e060020a60003504166321e6b53d811461008d57806338a5e016146100ae57806341a5b33d146100c35780635e35359e146100ed57806379ba50971461011757806385d5e6311461012c5780638da5cb5b14610146578063d4ee1d9014610175578063f2fde38b146101a4578063fc0c546a146101c5575b600080fd5b341561009857600080fd5b6100ac600160a060020a03600435166101f4565b005b34156100b957600080fd5b6100ac610275565b005b34156100ce57600080fd5b6100ac600160a060020a03600435811690602435166044356102e4565b005b34156100f857600080fd5b6100ac600160a060020a036004358116906024351660443561037a565b005b341561012257600080fd5b6100ac61046d565b005b341561013757600080fd5b6100ac6004351515610515565b005b341561015157600080fd5b61015961058e565b604051600160a060020a03909116815260200160405180910390f35b341561018057600080fd5b61015961059d565b604051600160a060020a03909116815260200160405180910390f35b34156101af57600080fd5b6100ac600160a060020a03600435166105ac565b005b34156101d057600080fd5b61015961060c565b604051600160a060020a03909116815260200160405180910390f35b60005433600160a060020a0390811691161461020c57fe5b600254600160a060020a031663f2fde38b8260405160e060020a63ffffffff8416028152600160a060020a039091166004820152602401600060405180830381600087803b151561025c57600080fd5b6102c65a03f1151561026d57600080fd5b5050505b5b50565b60005433600160a060020a0390811691161461028d57fe5b600254600160a060020a03166379ba50976040518163ffffffff1660e060020a028152600401600060405180830381600087803b15156102cc57600080fd5b6102c65a03f115156102dd57600080fd5b5050505b5b565b60005433600160a060020a039081169116146102fc57fe5b600254600160a060020a0316635e35359e84848460405160e060020a63ffffffff8616028152600160a060020a0393841660048201529190921660248201526044810191909152606401600060405180830381600087803b151561035f57600080fd5b6102c65a03f1151561037057600080fd5b5050505b5b505050565b60005433600160a060020a0390811691161461039257fe5b82600160a060020a03811615156103a857600080fd5b82600160a060020a03811615156103be57600080fd5b8330600160a060020a031681600160a060020a0316141515156103e057600080fd5b85600160a060020a031663a9059cbb868660006040516020015260405160e060020a63ffffffff8516028152600160a060020a0390921660048301526024820152604401602060405180830381600087803b151561043d57600080fd5b6102c65a03f1151561044e57600080fd5b50505060405180519050151561037057fe5b5b5b505b505b505b505050565b60015433600160a060020a0390811691161461048857600080fd5b6000546001547f343765429aea5a34b3ff6a3785a98a5abb2597aca87bfbb58632c173d585373a91600160a060020a039081169116604051600160a060020a039283168152911660208201526040908101905180910390a1600180546000805473ffffffffffffffffffffffffffffffffffffffff19908116600160a060020a038416179091551690555b565b60005433600160a060020a0390811691161461052d57fe5b600254600160a060020a0316631608f18f8260405160e060020a63ffffffff84160281529015156004820152602401600060405180830381600087803b151561025c57600080fd5b6102c65a03f1151561026d57600080fd5b5050505b5b50565b600054600160a060020a031681565b600154600160a060020a031681565b60005433600160a060020a039081169116146105c457fe5b600054600160a060020a03828116911614156105df57600080fd5b6001805473ffffffffffffffffffffffffffffffffffffffff1916600160a060020a0383161790555b5b50565b600254600160a060020a0316815600a165627a7a723058209d23ea4bb7b00605504a4bf560072f8d46c4af8f18796fd3092ff4e21cc609b20029",
  "source": "pragma solidity ^0.4.15;\nimport './TokenHolder.sol';\nimport './interfaces/ISmartToken.sol';\n\n/*\n    The smart token controller is an upgradable part of the smart token that allows\n    more functionality as well as fixes for bugs/exploits.\n    Once it accepts ownership of the token, it becomes the token's sole controller\n    that can execute any of its functions.\n\n    To upgrade the controller, ownership must be transferred to a new controller, along with\n    any relevant data.\n\n    The smart token must be set on construction and cannot be changed afterwards.\n    Wrappers are provided (as opposed to a single 'execute' function) for each of the token's functions, for easier access.\n\n    Note that the controller can transfer token ownership to a new controller that\n    doesn't allow executing any function on the token, for a trustless solution.\n    Doing that will also remove the owner's ability to upgrade the controller.\n*/\ncontract SmartTokenController is TokenHolder {\n    ISmartToken public token;   // smart token\n\n    /**\n        @dev constructor\n    */\n    function SmartTokenController(ISmartToken _token)\n        validAddress(_token)\n    {\n        token = _token;\n    }\n\n    // ensures that the controller is the token's owner\n    modifier active() {\n        assert(token.owner() == address(this));\n        _;\n    }\n\n    // ensures that the controller is not the token's owner\n    modifier inactive() {\n        assert(token.owner() != address(this));\n        _;\n    }\n\n    /**\n        @dev allows transferring the token ownership\n        the new owner still need to accept the transfer\n        can only be called by the contract owner\n\n        @param _newOwner    new token owner\n    */\n    function transferTokenOwnership(address _newOwner) public ownerOnly {\n        token.transferOwnership(_newOwner);\n    }\n\n    /**\n        @dev used by a new owner to accept a token ownership transfer\n        can only be called by the contract owner\n    */\n    function acceptTokenOwnership() public ownerOnly {\n        token.acceptOwnership();\n    }\n\n    /**\n        @dev disables/enables token transfers\n        can only be called by the contract owner\n\n        @param _disable    true to disable transfers, false to enable them\n    */\n    function disableTokenTransfers(bool _disable) public ownerOnly {\n        token.disableTransfers(_disable);\n    }\n\n    /**\n        @dev withdraws tokens held by the token and sends them to an account\n        can only be called by the owner\n\n        @param _token   ERC20 token contract address\n        @param _to      account to receive the new amount\n        @param _amount  amount to withdraw\n    */\n    function withdrawFromToken(IERC20Token _token, address _to, uint256 _amount) public ownerOnly {\n        token.withdrawTokens(_token, _to, _amount);\n    }\n}\n",
  "sourcePath": "/Users/tikonoff/projects/rootcore/contracts/SmartTokenController.sol",
  "schemaVersion": "1.0.0",
  "updatedAt": "2018-01-25T06:52:07.679Z"
}