{
  "contractName": "SmartTokenController",
  "abi": [
    {
      "constant": false,
      "inputs": [
        {
          "name": "_newOwner",
          "type": "address"
        }
      ],
      "name": "transferTokenOwnership",
      "outputs": [],
      "payable": false,
      "type": "function",
      "stateMutability": "nonpayable"
    },
    {
      "constant": false,
      "inputs": [],
      "name": "acceptTokenOwnership",
      "outputs": [],
      "payable": false,
      "type": "function",
      "stateMutability": "nonpayable"
    },
    {
      "constant": false,
      "inputs": [
        {
          "name": "_token",
          "type": "address"
        },
        {
          "name": "_to",
          "type": "address"
        },
        {
          "name": "_amount",
          "type": "uint256"
        }
      ],
      "name": "withdrawFromToken",
      "outputs": [],
      "payable": false,
      "type": "function",
      "stateMutability": "nonpayable"
    },
    {
      "constant": false,
      "inputs": [
        {
          "name": "_token",
          "type": "address"
        },
        {
          "name": "_to",
          "type": "address"
        },
        {
          "name": "_amount",
          "type": "uint256"
        }
      ],
      "name": "withdrawTokens",
      "outputs": [],
      "payable": false,
      "type": "function",
      "stateMutability": "nonpayable"
    },
    {
      "constant": false,
      "inputs": [],
      "name": "acceptOwnership",
      "outputs": [],
      "payable": false,
      "type": "function",
      "stateMutability": "nonpayable"
    },
    {
      "constant": false,
      "inputs": [
        {
          "name": "_disable",
          "type": "bool"
        }
      ],
      "name": "disableTokenTransfers",
      "outputs": [],
      "payable": false,
      "type": "function",
      "stateMutability": "nonpayable"
    },
    {
      "constant": true,
      "inputs": [],
      "name": "owner",
      "outputs": [
        {
          "name": "",
          "type": "address"
        }
      ],
      "payable": false,
      "type": "function",
      "stateMutability": "view"
    },
    {
      "constant": true,
      "inputs": [],
      "name": "newOwner",
      "outputs": [
        {
          "name": "",
          "type": "address"
        }
      ],
      "payable": false,
      "type": "function",
      "stateMutability": "view"
    },
    {
      "constant": false,
      "inputs": [
        {
          "name": "_newOwner",
          "type": "address"
        }
      ],
      "name": "transferOwnership",
      "outputs": [],
      "payable": false,
      "type": "function",
      "stateMutability": "nonpayable"
    },
    {
      "constant": true,
      "inputs": [],
      "name": "token",
      "outputs": [
        {
          "name": "",
          "type": "address"
        }
      ],
      "payable": false,
      "type": "function",
      "stateMutability": "view"
    },
    {
      "inputs": [
        {
          "name": "_token",
          "type": "address"
        }
      ],
      "payable": false,
      "type": "constructor",
      "stateMutability": "nonpayable"
    },
    {
      "anonymous": false,
      "inputs": [
        {
          "indexed": false,
          "name": "_prevOwner",
          "type": "address"
        },
        {
          "indexed": false,
          "name": "_newOwner",
          "type": "address"
        }
      ],
      "name": "OwnerUpdate",
      "type": "event"
    }
  ],
  "bytecode": "0x6060604052341561000f57600080fd5b60405160208061065e8339810160405280805160008054600160a060020a03191633600160a060020a03908116919091179091559092508291508116151561005657600080fd5b5060028054600160a060020a031916600160a060020a03929092169190911790556105d8806100866000396000f300606060405236156100885763ffffffff60e060020a60003504166321e6b53d811461008d57806338a5e016146100ae57806341a5b33d146100c15780635e35359e146100e957806379ba50971461011157806385d5e631146101245780638da5cb5b1461013c578063d4ee1d901461016b578063f2fde38b1461017e578063fc0c546a1461019d575b600080fd5b341561009857600080fd5b6100ac600160a060020a03600435166101b0565b005b34156100b957600080fd5b6100ac61022f565b34156100cc57600080fd5b6100ac600160a060020a036004358116906024351660443561029c565b34156100f457600080fd5b6100ac600160a060020a0360043581169060243516604435610330565b341561011c57600080fd5b6100ac610416565b341561012f57600080fd5b6100ac60043515156104bd565b341561014757600080fd5b61014f61051d565b604051600160a060020a03909116815260200160405180910390f35b341561017657600080fd5b61014f61052c565b341561018957600080fd5b6100ac600160a060020a036004351661053b565b34156101a857600080fd5b61014f61059d565b60005433600160a060020a039081169116146101c857fe5b600254600160a060020a031663f2fde38b8260405160e060020a63ffffffff8416028152600160a060020a039091166004820152602401600060405180830381600087803b151561021857600080fd5b6102c65a03f1151561022957600080fd5b50505050565b60005433600160a060020a0390811691161461024757fe5b600254600160a060020a03166379ba50976040518163ffffffff1660e060020a028152600401600060405180830381600087803b151561028657600080fd5b6102c65a03f1151561029757600080fd5b505050565b60005433600160a060020a039081169116146102b457fe5b600254600160a060020a0316635e35359e84848460405160e060020a63ffffffff8616028152600160a060020a0393841660048201529190921660248201526044810191909152606401600060405180830381600087803b151561031757600080fd5b6102c65a03f1151561032857600080fd5b505050505050565b60005433600160a060020a0390811691161461034857fe5b82600160a060020a038116151561035e57600080fd5b82600160a060020a038116151561037457600080fd5b8330600160a060020a031681600160a060020a03161415151561039657600080fd5b85600160a060020a031663a9059cbb868660006040516020015260405160e060020a63ffffffff8516028152600160a060020a0390921660048301526024820152604401602060405180830381600087803b15156103f357600080fd5b6102c65a03f1151561040457600080fd5b50505060405180519050151561032857fe5b60015433600160a060020a0390811691161461043157600080fd5b6000546001547f343765429aea5a34b3ff6a3785a98a5abb2597aca87bfbb58632c173d585373a91600160a060020a039081169116604051600160a060020a039283168152911660208201526040908101905180910390a1600180546000805473ffffffffffffffffffffffffffffffffffffffff19908116600160a060020a03841617909155169055565b60005433600160a060020a039081169116146104d557fe5b600254600160a060020a0316631608f18f8260405160e060020a63ffffffff84160281529015156004820152602401600060405180830381600087803b151561021857600080fd5b600054600160a060020a031681565b600154600160a060020a031681565b60005433600160a060020a0390811691161461055357fe5b600054600160a060020a038281169116141561056e57600080fd5b6001805473ffffffffffffffffffffffffffffffffffffffff1916600160a060020a0392909216919091179055565b600254600160a060020a0316815600a165627a7a72305820b8120e8bdb4a5b66e6e4f9b7f9023f07548448025a759e5725af6af91c32a81d0029",
  "source": "pragma solidity ^0.4.15;\r\nimport './TokenHolder.sol';\r\nimport './interfaces/ISmartToken.sol';\r\n\r\n/*\r\n    The smart token controller is an upgradable part of the smart token that allows\r\n    more functionality as well as fixes for bugs/exploits.\r\n    Once it accepts ownership of the token, it becomes the token's sole controller\r\n    that can execute any of its functions.\r\n\r\n    To upgrade the controller, ownership must be transferred to a new controller, along with\r\n    any relevant data.\r\n\r\n    The smart token must be set on construction and cannot be changed afterwards.\r\n    Wrappers are provided (as opposed to a single 'execute' function) for each of the token's functions, for easier access.\r\n\r\n    Note that the controller can transfer token ownership to a new controller that\r\n    doesn't allow executing any function on the token, for a trustless solution.\r\n    Doing that will also remove the owner's ability to upgrade the controller.\r\n*/\r\ncontract SmartTokenController is TokenHolder {\r\n    ISmartToken public token;   // smart token\r\n\r\n    /**\r\n        @dev constructor\r\n    */\r\n    function SmartTokenController(ISmartToken _token)\r\n        validAddress(_token)\r\n    {\r\n        token = _token;\r\n    }\r\n\r\n    // ensures that the controller is the token's owner\r\n    modifier active() {\r\n        assert(token.owner() == address(this));\r\n        _;\r\n    }\r\n\r\n    // ensures that the controller is not the token's owner\r\n    modifier inactive() {\r\n        assert(token.owner() != address(this));\r\n        _;\r\n    }\r\n\r\n    /**\r\n        @dev allows transferring the token ownership\r\n        the new owner still need to accept the transfer\r\n        can only be called by the contract owner\r\n\r\n        @param _newOwner    new token owner\r\n    */\r\n    function transferTokenOwnership(address _newOwner) public ownerOnly {\r\n        token.transferOwnership(_newOwner);\r\n    }\r\n\r\n    /**\r\n        @dev used by a new owner to accept a token ownership transfer\r\n        can only be called by the contract owner\r\n    */\r\n    function acceptTokenOwnership() public ownerOnly {\r\n        token.acceptOwnership();\r\n    }\r\n\r\n    /**\r\n        @dev disables/enables token transfers\r\n        can only be called by the contract owner\r\n\r\n        @param _disable    true to disable transfers, false to enable them\r\n    */\r\n    function disableTokenTransfers(bool _disable) public ownerOnly {\r\n        token.disableTransfers(_disable);\r\n    }\r\n\r\n    /**\r\n        @dev withdraws tokens held by the token and sends them to an account\r\n        can only be called by the owner\r\n\r\n        @param _token   ERC20 token contract address\r\n        @param _to      account to receive the new amount\r\n        @param _amount  amount to withdraw\r\n    */\r\n    function withdrawFromToken(IERC20Token _token, address _to, uint256 _amount) public ownerOnly {\r\n        token.withdrawTokens(_token, _to, _amount);\r\n    }\r\n}\r\n",
  "sourcePath": "D:\\Blockchain-Solidity\\rootcore-fork\\contracts\\SmartTokenController.sol",
  "schemaVersion": "1.0.0",
  "updatedAt": "2018-01-26T01:41:49.025Z"
}