{
  "contractName": "TestERC20Token",
  "abi": [
    {
      "constant": true,
      "inputs": [],
      "name": "name",
      "outputs": [
        {
          "name": "",
          "type": "string"
        }
      ],
      "payable": false,
      "type": "function",
      "stateMutability": "view"
    },
    {
      "constant": false,
      "inputs": [
        {
          "name": "_spender",
          "type": "address"
        },
        {
          "name": "_value",
          "type": "uint256"
        }
      ],
      "name": "approve",
      "outputs": [
        {
          "name": "success",
          "type": "bool"
        }
      ],
      "payable": false,
      "type": "function",
      "stateMutability": "nonpayable"
    },
    {
      "constant": true,
      "inputs": [],
      "name": "totalSupply",
      "outputs": [
        {
          "name": "",
          "type": "uint256"
        }
      ],
      "payable": false,
      "type": "function",
      "stateMutability": "view"
    },
    {
      "constant": false,
      "inputs": [
        {
          "name": "_from",
          "type": "address"
        },
        {
          "name": "_to",
          "type": "address"
        },
        {
          "name": "_value",
          "type": "uint256"
        }
      ],
      "name": "transferFrom",
      "outputs": [
        {
          "name": "success",
          "type": "bool"
        }
      ],
      "payable": false,
      "type": "function",
      "stateMutability": "nonpayable"
    },
    {
      "constant": true,
      "inputs": [],
      "name": "decimals",
      "outputs": [
        {
          "name": "",
          "type": "uint8"
        }
      ],
      "payable": false,
      "type": "function",
      "stateMutability": "view"
    },
    {
      "constant": true,
      "inputs": [],
      "name": "standard",
      "outputs": [
        {
          "name": "",
          "type": "string"
        }
      ],
      "payable": false,
      "type": "function",
      "stateMutability": "view"
    },
    {
      "constant": true,
      "inputs": [
        {
          "name": "",
          "type": "address"
        }
      ],
      "name": "balanceOf",
      "outputs": [
        {
          "name": "",
          "type": "uint256"
        }
      ],
      "payable": false,
      "type": "function",
      "stateMutability": "view"
    },
    {
      "constant": true,
      "inputs": [],
      "name": "symbol",
      "outputs": [
        {
          "name": "",
          "type": "string"
        }
      ],
      "payable": false,
      "type": "function",
      "stateMutability": "view"
    },
    {
      "constant": false,
      "inputs": [
        {
          "name": "_to",
          "type": "address"
        },
        {
          "name": "_value",
          "type": "uint256"
        }
      ],
      "name": "transfer",
      "outputs": [
        {
          "name": "success",
          "type": "bool"
        }
      ],
      "payable": false,
      "type": "function",
      "stateMutability": "nonpayable"
    },
    {
      "constant": true,
      "inputs": [
        {
          "name": "",
          "type": "address"
        },
        {
          "name": "",
          "type": "address"
        }
      ],
      "name": "allowance",
      "outputs": [
        {
          "name": "",
          "type": "uint256"
        }
      ],
      "payable": false,
      "type": "function",
      "stateMutability": "view"
    },
    {
      "inputs": [
        {
          "name": "_name",
          "type": "string"
        },
        {
          "name": "_symbol",
          "type": "string"
        },
        {
          "name": "_supply",
          "type": "uint256"
        }
      ],
      "payable": false,
      "type": "constructor",
      "stateMutability": "nonpayable"
    },
    {
      "anonymous": false,
      "inputs": [
        {
          "indexed": true,
          "name": "_from",
          "type": "address"
        },
        {
          "indexed": true,
          "name": "_to",
          "type": "address"
        },
        {
          "indexed": false,
          "name": "_value",
          "type": "uint256"
        }
      ],
      "name": "Transfer",
      "type": "event"
    },
    {
      "anonymous": false,
      "inputs": [
        {
          "indexed": true,
          "name": "_owner",
          "type": "address"
        },
        {
          "indexed": true,
          "name": "_spender",
          "type": "address"
        },
        {
          "indexed": false,
          "name": "_value",
          "type": "uint256"
        }
      ],
      "name": "Approval",
      "type": "event"
    }
  ],
  "bytecode": "0x606060405260408051908101604052600981527f546f6b656e20302e3100000000000000000000000000000000000000000000006020820152600090805161004b92916020019061015c565b50602060405190810160405260008152600190805161006e92916020019061015c565b50602060405190810160405260008152600290805161009192916020019061015c565b506003805460ff19169055600060045534156100ac57600080fd5b60405161092f38038061092f8339810160405280805182019190602001805182019190602001805191508390508260008083511180156100ed575060008251115b15156100f857600080fd5b600183805161010b92916020019061015c565b50600282805161011f92916020019061015c565b506003805460ff191660ff929092169190911790555050600481905533600160a060020a0316600090815260056020526040902055506101f79050565b828054600181600116156101000203166002900490600052602060002090601f016020900481019282601f1061019d57805160ff19168380011785556101ca565b828001600101855582156101ca579182015b828111156101ca5782518255916020019190600101906101af565b506101d69291506101da565b5090565b6101f491905b808211156101d657600081556001016101e0565b90565b610729806102066000396000f300606060405236156100a15763ffffffff7c010000000000000000000000000000000000000000000000000000000060003504166306fdde0381146100a6578063095ea7b31461013057806318160ddd1461016657806323b872dd1461018b578063313ce567146101b35780635a3b7e42146101dc57806370a08231146101ef57806395d89b411461020e578063a9059cbb14610221578063dd62ed3e14610243575b600080fd5b34156100b157600080fd5b6100b9610268565b60405160208082528190810183818151815260200191508051906020019080838360005b838110156100f55780820151838201526020016100dd565b50505050905090810190601f1680156101225780820380516001836020036101000a031916815260200191505b509250505060405180910390f35b341561013b57600080fd5b610152600160a060020a0360043516602435610306565b604051901515815260200160405180910390f35b341561017157600080fd5b6101796103c3565b60405190815260200160405180910390f35b341561019657600080fd5b610152600160a060020a03600435811690602435166044356103c9565b34156101be57600080fd5b6101c66104fb565b60405160ff909116815260200160405180910390f35b34156101e757600080fd5b6100b9610504565b34156101fa57600080fd5b610179600160a060020a036004351661056f565b341561021957600080fd5b6100b9610581565b341561022c57600080fd5b610152600160a060020a03600435166024356105ec565b341561024e57600080fd5b610179600160a060020a03600435811690602435166106b8565b60018054600181600116156101000203166002900480601f0160208091040260200160405190810160405280929190818152602001828054600181600116156101000203166002900480156102fe5780601f106102d3576101008083540402835291602001916102fe565b820191906000526020600020905b8154815290600101906020018083116102e157829003601f168201915b505050505081565b600082600160a060020a038116151561031e57600080fd5b82158061034e5750600160a060020a03338116600090815260066020908152604080832093881683529290522054155b151561035957600080fd5b600160a060020a03338116600081815260066020908152604080832094891680845294909152908190208690557f8c5be1e5ebec7d5bd14f71427d1e84f3dd0314c0f7b2291e5b200ac8c7c3b9259086905190815260200160405180910390a35060019392505050565b60045481565b600083600160a060020a03811615156103e157600080fd5b83600160a060020a03811615156103f757600080fd5b600160a060020a038087166000908152600660209081526040808320339094168352929052205461042890856106d5565b600160a060020a03808816600081815260066020908152604080832033909516835293815283822094909455908152600590925290205461046990856106d5565b600160a060020a03808816600090815260056020526040808220939093559087168152205461049890856106e7565b600160a060020a03808716600081815260056020526040908190209390935591908816907fddf252ad1be2c89b69c2b068fc378daa952ba7f163c4a11628f55a4df523b3ef9087905190815260200160405180910390a350600195945050505050565b60035460ff1681565b60008054600181600116156101000203166002900480601f0160208091040260200160405190810160405280929190818152602001828054600181600116156101000203166002900480156102fe5780601f106102d3576101008083540402835291602001916102fe565b60056020526000908152604090205481565b60028054600181600116156101000203166002900480601f0160208091040260200160405190810160405280929190818152602001828054600181600116156101000203166002900480156102fe5780601f106102d3576101008083540402835291602001916102fe565b600082600160a060020a038116151561060457600080fd5b600160a060020a03331660009081526005602052604090205461062790846106d5565b600160a060020a03338116600090815260056020526040808220939093559086168152205461065690846106e7565b600160a060020a0380861660008181526005602052604090819020939093559133909116907fddf252ad1be2c89b69c2b068fc378daa952ba7f163c4a11628f55a4df523b3ef9086905190815260200160405180910390a35060019392505050565b600660209081526000928352604080842090915290825290205481565b6000818310156106e157fe5b50900390565b6000828201838110156106f657fe5b93925050505600a165627a7a723058203898f2a312daa6b4eee7c08f88d5f02bc4e04b87afc5291be7104c5b9bb572a10029",
  "source": "pragma solidity ^0.4.15;\r\nimport '../ERC20Token.sol';\r\n\r\n/*\r\n    Test token with predefined supply\r\n*/\r\ncontract TestERC20Token is ERC20Token {\r\n    function TestERC20Token(string _name, string _symbol, uint256 _supply)\r\n        ERC20Token(_name, _symbol, 0)\r\n    {\r\n        totalSupply = _supply;\r\n        balanceOf[msg.sender] = _supply;\r\n    }\r\n}\r\n",
  "sourcePath": "D:\\Blockchain-Solidity\\rootcore-fork\\contracts\\helpers\\TestERC20Token.sol",
  "schemaVersion": "1.0.0",
  "updatedAt": "2018-01-26T01:41:48.106Z"
}