{
  "contractName": "TestUtils",
  "abi": [
    {
      "constant": true,
      "inputs": [
        {
          "name": "_x",
          "type": "uint256"
        },
        {
          "name": "_y",
          "type": "uint256"
        }
      ],
      "name": "testSafeMul",
      "outputs": [
        {
          "name": "",
          "type": "uint256"
        }
      ],
      "payable": false,
      "type": "function",
      "stateMutability": "view"
    },
    {
      "constant": true,
      "inputs": [
        {
          "name": "_x",
          "type": "uint256"
        },
        {
          "name": "_y",
          "type": "uint256"
        }
      ],
      "name": "testSafeAdd",
      "outputs": [
        {
          "name": "",
          "type": "uint256"
        }
      ],
      "payable": false,
      "type": "function",
      "stateMutability": "view"
    },
    {
      "constant": true,
      "inputs": [
        {
          "name": "_x",
          "type": "uint256"
        },
        {
          "name": "_y",
          "type": "uint256"
        }
      ],
      "name": "testSafeSub",
      "outputs": [
        {
          "name": "",
          "type": "uint256"
        }
      ],
      "payable": false,
      "type": "function",
      "stateMutability": "view"
    },
    {
      "inputs": [],
      "payable": false,
      "type": "constructor",
      "stateMutability": "nonpayable"
    }
  ],
  "bytecode": "0x6060604052341561000f57600080fd5b61014b8061001e6000396000f300606060405263ffffffff7c01000000000000000000000000000000000000000000000000000000006000350416639ee6ff708114610052578063de47864c1461007d578063ec0da3301461009657600080fd5b341561005d57600080fd5b61006b6004356024356100af565b60405190815260200160405180910390f35b341561008857600080fd5b61006b6004356024356100c2565b34156100a157600080fd5b61006b6004356024356100ce565b60006100bb83836100da565b9392505050565b60006100bb83836100fe565b60006100bb838361010d565b60008282028315806100f657508284828115156100f357fe5b04145b15156100bb57fe5b6000828201838110156100bb57fe5b60008183101561011957fe5b509003905600a165627a7a7230582058e11cba8930cf7cb1f0d74f1d33f3ddd7fd4c930d2d63b5d40ce6a08fdf888e0029",
  "source": "pragma solidity ^0.4.15;\r\nimport '../Utils.sol';\r\n\r\n/*\r\n    Utils test helper that exposes the safe math functions\r\n*/\r\ncontract TestUtils is Utils {\r\n    function TestUtils() {\r\n    }\r\n\r\n    function testSafeAdd(uint256 _x, uint256 _y) public constant returns (uint256) {\r\n        return super.safeAdd(_x, _y);\r\n    }\r\n\r\n    function testSafeSub(uint256 _x, uint256 _y) public constant returns (uint256) {\r\n        return super.safeSub(_x, _y);\r\n    }\r\n\r\n    function testSafeMul(uint256 _x, uint256 _y) public constant returns (uint256) {\r\n        return super.safeMul(_x, _y);\r\n    }\r\n}\r\n",
  "sourcePath": "D:\\Blockchain-Solidity\\rootcore\\contracts\\helpers\\TestUtils.sol",
  "schemaVersion": "1.0.0",
  "updatedAt": "2018-01-25T22:03:26.701Z"
}