{
  "contractName": "TokenHolder",
  "abi": [
    {
      "constant": false,
      "inputs": [
        {
          "name": "_token",
          "type": "address"
        },
        {
          "name": "_to",
          "type": "address"
        },
        {
          "name": "_amount",
          "type": "uint256"
        }
      ],
      "name": "withdrawTokens",
      "outputs": [],
      "payable": false,
      "type": "function"
    },
    {
      "constant": false,
      "inputs": [],
      "name": "acceptOwnership",
      "outputs": [],
      "payable": false,
      "type": "function"
    },
    {
      "constant": true,
      "inputs": [],
      "name": "owner",
      "outputs": [
        {
          "name": "",
          "type": "address"
        }
      ],
      "payable": false,
      "type": "function"
    },
    {
      "constant": true,
      "inputs": [],
      "name": "newOwner",
      "outputs": [
        {
          "name": "",
          "type": "address"
        }
      ],
      "payable": false,
      "type": "function"
    },
    {
      "constant": false,
      "inputs": [
        {
          "name": "_newOwner",
          "type": "address"
        }
      ],
      "name": "transferOwnership",
      "outputs": [],
      "payable": false,
      "type": "function"
    },
    {
      "inputs": [],
      "payable": false,
      "type": "constructor"
    },
    {
      "anonymous": false,
      "inputs": [
        {
          "indexed": false,
          "name": "_prevOwner",
          "type": "address"
        },
        {
          "indexed": false,
          "name": "_newOwner",
          "type": "address"
        }
      ],
      "name": "OwnerUpdate",
      "type": "event"
    }
  ],
  "bytecode": "0x6060604052341561000f57600080fd5b5b5b5b60008054600160a060020a03191633600160a060020a03161790555b5b5b5b610385806100406000396000f300606060405263ffffffff7c01000000000000000000000000000000000000000000000000000000006000350416635e35359e811461006957806379ba5097146100935780638da5cb5b146100a8578063d4ee1d90146100d7578063f2fde38b14610106575b600080fd5b341561007457600080fd5b610091600160a060020a0360043581169060243516604435610127565b005b341561009e57600080fd5b610091610233565b005b34156100b357600080fd5b6100bb6102db565b604051600160a060020a03909116815260200160405180910390f35b34156100e257600080fd5b6100bb6102ea565b604051600160a060020a03909116815260200160405180910390f35b341561011157600080fd5b610091600160a060020a03600435166102f9565b005b60005433600160a060020a0390811691161461013f57fe5b82600160a060020a038116151561015557600080fd5b82600160a060020a038116151561016b57600080fd5b8330600160a060020a031681600160a060020a03161415151561018d57600080fd5b85600160a060020a031663a9059cbb86866000604051602001526040517c010000000000000000000000000000000000000000000000000000000063ffffffff8516028152600160a060020a0390921660048301526024820152604401602060405180830381600087803b151561020357600080fd5b6102c65a03f1151561021457600080fd5b50505060405180519050151561022657fe5b5b5b505b505b505b505050565b60015433600160a060020a0390811691161461024e57600080fd5b6000546001547f343765429aea5a34b3ff6a3785a98a5abb2597aca87bfbb58632c173d585373a91600160a060020a039081169116604051600160a060020a039283168152911660208201526040908101905180910390a1600180546000805473ffffffffffffffffffffffffffffffffffffffff19908116600160a060020a038416179091551690555b565b600054600160a060020a031681565b600154600160a060020a031681565b60005433600160a060020a0390811691161461031157fe5b600054600160a060020a038281169116141561032c57600080fd5b6001805473ffffffffffffffffffffffffffffffffffffffff1916600160a060020a0383161790555b5b505600a165627a7a72305820247e99f7e81dd604b64b7985811f194c68cb508e4eb32de8df33563652fa1eb80029",
  "source": "pragma solidity ^0.4.15;\nimport './Owned.sol';\nimport './Utils.sol';\nimport './interfaces/IERC20Token.sol';\nimport './interfaces/ITokenHolder.sol';\n\n/*\n    We consider every contract to be a 'token holder' since it's currently not possible\n    for a contract to deny receiving tokens.\n\n    The TokenHolder's contract sole purpose is to provide a safety mechanism that allows\n    the owner to send tokens that were sent to the contract by mistake back to their sender.\n*/\ncontract TokenHolder is ITokenHolder, Owned, Utils {\n    /**\n        @dev constructor\n    */\n    function TokenHolder() {\n    }\n\n    /**\n        @dev withdraws tokens held by the contract and sends them to an account\n        can only be called by the owner\n\n        @param _token   ERC20 token contract address\n        @param _to      account to receive the new amount\n        @param _amount  amount to withdraw\n    */\n    function withdrawTokens(IERC20Token _token, address _to, uint256 _amount)\n        public\n        ownerOnly\n        validAddress(_token)\n        validAddress(_to)\n        notThis(_to)\n    {\n        assert(_token.transfer(_to, _amount));\n    }\n}\n",
  "sourcePath": "/Users/tikonoff/projects/rootcore/contracts/TokenHolder.sol",
  "schemaVersion": "1.0.0",
  "updatedAt": "2018-01-25T20:46:30.947Z"
}